:040000000BEF00F012
:100008005082FACF01F0FBCF02F0DAED07F0DEEF15
:1000180009F0010E156E010E166E000E296E000E07
:100028000F6E010E0DEC0CF0010E87EC0BF0276E35
:1000380035D1A10E116E2F0E126E840E136E43EC85
:100048000AF0410E116E000E126EC40E136E43ECD0
:100058000AF0000E0F6EC00E0DEC0CF0010E87ECCE
:100068000BF0276E010E166E0B0E2718D8A470D051
:100078002904D8A429D0320E416004D0390E426038
:1000880001D007D0320E4118D8A405D0330E4260F3
:1000980002D0422A10D0320E4118D8A409D0330E0B
:1000A8004218D8A405D0300E416E300E426E03D0EF
:1000B800300E426E412A410E116E000E126EC40EB1
:1000C800136E43EC0AF0EAD0020E2918D8A41ED009
:1000D800390E456002D0452A10D0350E4418D8A4F0
:1000E80009D0390E4518D8A405D0300E446E300E0C
:1000F800456E03D0300E456E442A410E116E000E37
:10010800126EC40E136E43EC0AF0C8D0030E291801
:10011800D8A4C4D0390E486002D0482A10D0350E71
:100128004718D8A409D0390E4818D8A405D0300EDD
:10013800476E300E486E03D0300E486E472A410E87
:10014800116E000E126EC40E136E43EC0AF0A6D0A8
:100158000C0E2718D8A4A2D0292A000E0F6E140E50
:100168000DEC0CF0000E0F6E140E0DEC0CF0000EE2
:100178000F6E140E0DEC0CF0000E0F6E140E0DEC3D
:100188000CF02904D8B439D0020E2918D8A410D0FC
:10019800000E0F6E140E0DEC0CF0000E0F6E140E08
:1001A8000DEC0CF0000E0F6E140E0DEC0CF025D0BB
:1001B800030E2918D8A41FD0000E0F6E140E0DECD4
:1001C8000CF0000E0F6E140E0DEC0CF0000E0F6EFE
:1001D800140E0DEC0CF0000E0F6E140E0DEC0CF05E
:1001E800000E0F6E140E0DEC0CF0000E0F6E140EB8
:1001F8000DEC0CF002D0000E296E200E176EA10E29
:10020800186E070E196E000E1A6E1706000E185A91
:10021800195A1A5A1728F9E11828F7E11928F5E1A7
:100228001A28D8A4F2D7000E0F6E0F0E0DEC0CF0A2
:10023800000E0F6E140E0DEC0CF0200E1B6EA10EAE
:100248001C6E070E1D6E000E1E6E1B06000E1C5A3D
:100258001D5A1E5A1B28F9E11C28F7E11D28F5E153
:100268001E28D8A4F2D7000E0F6E0F0E0DEC0CF05E
:10027800200E1F6EA10E206E070E216E000E226E3C
:100288001F06000E205A215A225A1F28F9E1202859
:10029800F7E12128F5E12228D8A4F2D70A0E271879
:1002A800D8A4C7D6000E0F6E010E0DEC0CF0410E4F
:1002B800116E000E126E800E136E43EC0AF0200EC3
:1002C800236EA10E246E070E256E000E266E2306E1
:1002D800000E245A255A265A2328F9E12428F7E142
:1002E8002528F5E12628D8A4F2D7000E0F6E0C0EAB
:1002F8000DEC0CF0000E286E41C014F0143AF00E0C
:100308001416F00E141642500F0B1410286E28C045
:1003180010F0020E58EC0CF044C014F0143AF00E31
:100328001416F00E141645500F0B1410286E28C022
:1003380010F0010E58EC0CF047C014F0143AF00E0F
:100348001416F00E141648500F0B1410286E28C0FF
:1003580010F0000E58EC0CF0010E4F6E120067EC16
:100368000CF0000E3A6E000E396E000E386E310E2B
:100378000F6E010E34EC0CF0310E0F6E030E34ECE0
:100388000CF0310E0F6E040E34EC0CF0310E0F6EC3
:10039800020E34EC0CF0D00E116E2F0E126E810E80
:1003A800136E43EC0AF0FA0E116E2F0E126E890EC0
:1003B800136E43EC0AF0310E116E2F0E126E8D0E75
:1003C800136E43EC0AF0000E00018C6FC4EC08F0C9
:1003D80094EC0CF0040E21EC0CF00FC036F010C0B9
:1003E80037F036C016F037C017F0AAEC09F0010E46
:1003F80087EC0BF03B6E000E87EC0BF0346E0A0EA8
:100408003418D8A47AD000017A51306E00017B519B
:10041800316E00017A4B7B2B315004E1640E305C65
:10042800D8A06BD04D504E10D8A423D007EC03F0C1
:1004380015C032F016C033F0000E0F6E0C0E0DEC26
:100448000CF032503310D8B403D053EC05F00BD075
:10045800000E4E6E0F0E4D6E73EC0AF0000E0F6E0E
:10046800010E0DEC0CF0000E00017B6F000E7A6F90
:1004780044D04D504E10D8B440D0000E0F6E010E2F
:100488000DEC0CF04DC00FF04EC010F0000E126EC7
:100498000A0E116E3DEC09F00F50300F356ED50E77
:1004A800116E2F0E126E840E136E43EC0AF0C20EFC
:1004B800116E355074EC0CF04DC00FF04EC010F0BA
:1004C800000E126E0A0E116E82EC08F00F50300FFB
:1004D800356EC10E116E355074EC0CF04D0E116E68
:1004E8002F0E126EC50E136E43EC0AF073EC0AF071
:1004F800000E0F6E010E0DEC0CF03B04D8B410D0BA
:10050800020E3B18D8B40CD0030E3B18D8B408D050
:10051800040E3B18D8B404D0050E3B18D8A43BD71A
:100528003B04D8A435D03850D8A402D0010E01D04D
:10053800000E386E75EC09F03850D8B413D0F20EAE
:10054800116E2F0E126EC90E136E43EC0AF0000ED8
:100558003A6E000E396E000E156E0A0E146E3DECE2
:1005680007F00ED0F60E116E2F0E126EC90E136E16
:1005780043EC0AF0000E156E0B0E146E3DEC07F0FE
:1005880036C016F037C017F011EC0AF01DEC0BF06E
:10059800020E3B18D8B404D0030E3B18D8A4FBD6DF
:1005A8003850D8B4F8D6020E3B18D8A40BD0394A24
:1005B8003A2A070E39183A10D8A40FD0000E3A6E0E
:1005C800060E0AD03906D8A03A0639503A10D8A4EF
:1005D80004D0000E3A6E010E396E75EC09F039C080
:1005E80014F03AC015F03DEC07F0000E00017B6FE7
:1005F800000E7A6F36C016F037C017F011EC0AF00B
:100608001DEC0BF0C8D6C00E266E000E2A6E000E2A
:10061800296E000E2F6E000E2E6E000E286E000E34
:10062800276E000E1F6E000E1E6E20EE6AF010EE92
:1006380020F0040EDBCFE3FFE806FCE220EE6FF0CB
:1006480010EE17F0040EDBCFE3FFE806FCE2010E24
:100658009DEC0CF0206E020E9DEC0CF0216E030E4A
:100668009DEC0CF0226E040E9DEC0CF0236E000E37
:100678000F6E010E0DEC0CF0010E87EC0BF02D6ED9
:10068800FF0E116E2E0E126E800E136E43EC0AF0E2
:10069800000E0F6E26500DEC0CF0000E0F6E0E0EB5
:1006A8000DEC0CF02D04D8B404D0020E2D18D8A4EB
:1006B800C6D02D04D8A408D0170E2E24D96E000E4B
:1006C8002F20DA6E310E0BD0020E2D18D8A408D0C8
:1006D800170E2E24D96E000E2F20DA6E300EDF6E24
:1006E8002E50C00F116E2A0E74EC0CF0294A2A2ADB
:1006F8002E4A2F2A2E50C00F266E040E29182A10B3
:10070800D8A413D0200E0F6E000E106E170E116EA7
:10071800000E126E43EC0BF00F501010D8A405D049
:10072800000E166E010E156E1200040E29182A10FE
:10073800D8A485D0200E0F6E000E106E170E116E05
:10074800000E126E43EC0BF00F501010D8B477D097
:10075800EC0E116E2E0E126E800E136E43EC0AF024
:10076800000E2F6E000E2E6E000E2A6E000E296EE1
:100778001E041F10D8B40BD0274A282A2750000877
:10078800350F256EC00E116E255074EC0CF0350E29
:10079800116E2F0E126EC10E136E43EC0AF0000E8E
:1007A8001D6E0A0E1C6E18D0C30E2C6E500E2B6ECA
:1007B8002B06D8A02C062B28FBE12C28D8A4F8D788
:1007C8004E0E2C6E200E2B6E2B06D8A02C062B2836
:1007D800FBE12C28D8A4F8D71C06D8A01D061C2895
:1007E800E3E11D28D8A4E0D7C00E266E000E0F6ED8
:1007F800010E0DEC0CF0050E27182810D8A41FD0F8
:10080800000E0F6E010E0DEC0CF0000E0F6E0C0EAC
:100818000DEC0CF0EC0E116E2E0E126E800E136E97
:1008280043EC0AF0450E116E2F0E126EC00E136EB9
:1008380043EC0AF0000E166E000E156E1200270E1D
:100848002C6E100E2B6E2B06D8A02C062B28FBE145
:100858002C28D8B411D7F7D720EE60F010EE1CF092
:10086800040EDBCFE3FFE806FCE220EE65F010EEB5
:1008780017F0040EDBCFE3FFE806FCE2C00E216EA2
:10088800000E236E000E226E000E266E000E256EE0
:10089800000E166E000E156E000E0F6E010E0DEC9A
:1008A8000CF0D90E116E2E0E126E800E136E43ECE4
:1008B8000AF0000E0F6E21500DEC0CF0000E0F6EBA
:1008C8000E0E0DEC0CF0010E87EC0BF0246E23BE1F
:1008D80006D0235043E1040E225CD8B03FD0240454
:1008E800D8B404D0020E2418D8A438D02404D8A42C
:1008F80008D01C0E2524D96E000E2620DA6E310E83
:100908000BD0020E2418D8A408D01C0E2524D96EAA
:10091800000E2620DA6E300EDF6E2550C00F116EE5
:100928002A0E74EC0CF0224A232A254A262A040EA1
:1009380022182310D8A43AD0000E0F6E010E0DEC29
:100948000CF0000E266E000E256ED50E116E2E0EC2
:10095800126E800E136E43EC0AF028D02404D8B42B
:1009680004D0020E2418D8A424D02404D8A408D073
:10097800170E2524D96E000E2620DA6E310E0BD004
:10098800020E2418D8A408D0170E2524D96E000EFC
:100998002620DA6E300EDF6E2550C00F116E2A0E3B
:1009A80074EC0CF0254A262A224A232A2550C00F27
:1009B800216E080E22182310D8A441D01C0E0F6EE9
:1009C800000E106E170E116E000E126E43EC0BF037
:1009D8000F501010D8A433D01CC00FF0010E34EC07
:1009E8000CF01DC00FF0020E34EC0CF01EC00FF01E
:1009F800030E34EC0CF01FC00FF0040E34EC0CF0B6
:100A080073EC0AF0000E0F6E010E0DEC0CF0000EE8
:100A18000F6E0C0E0DEC0CF0550E116E2F0E126EA3
:100A2800800E136E43EC0AF0940E116E2F0E126EA8
:100A3800C00E136E43EC0AF073EC0AF01200090EB4
:100A480022182310D8A435D71C0E0F6E000E106E76
:100A5800170E116E000E126E43EC0BF00F501010B3
:100A6800D8B427D7000E0F6E010E0DEC0CF0000E57
:100A78000F6E0C0E0DEC0CF0650E116E2F0E126E33
:100A8800800E136E43EC0AF0BD0E116E2E0E126E20
:100A9800C00E136E43EC0AF073EC0AF01200000E5D
:100AA8000F6E010E0DEC0CF0CB0E116E2F0E126EA8
:100AB800810E136E43EC0AF020EEB3F010EEA3F0B3
:100AC800090EDBCFE3FFE806FCE2000E0001B26F7F
:100AD800000EB16F000E0001A26F000EA16F000E94
:100AE8000001AF6F000EAE6FD8900001B135D96E1E
:100AF8000001B235DA6EA30ED926000EDA22DECF57
:100B080011F0DDCF12F0C20E136E43EC0AF0C00EE6
:100B1800116E2A0E74EC0CF0010E87EC0BF000013C
:100B2800B06F000E87EC0BF00001AD6F0A0E0001EC
:100B3800AD19D8A447D00001AE512A6E0001AF51BB
:100B48002B6E0001AE4BAF2B2B5004E1640E2A5CD8
:100B5800D8A038D0000E0001AF6F000EAE6F14D0D1
:100B6800000E0F6E010E0DEC0CF058EC06F024D0C0
:100B780030EC04F021D00DEC00F01ED034EC08F07D
:100B88001BD0E2EC0BF018D0B1C02AF0B2C02BF0A9
:100B98002B50000AD8A410D02A50000AD8B4E0D7A5
:100BA800010AD8B4E5D7030AD8B4E5D7010AD8B4FE
:100BB800E5D7070AD8B4E5D7000E0F6E010E0DEC85
:100BC8000CF012000B0E0001B019D8B405D00C0EB1
:100BD8000001B019D8A4A0D7000E0F6E010E0DECBD
:100BE8000CF0000E0001AF6F000EAE6F0B0E00018F
:100BF800B019D8A40FD00001B14BB22B050E0001DB
:100C0800B1190001B211D8A415D0000E0001B26FBD
:100C1800040E0FD00001B107D8A0B2070001B12916
:100C280009E10001B229D8A405D0000E0001B26F75
:100C3800000EB16FD8900001B135D96E0001B23500
:100C4800DA6EA30ED926000EDA22DECF11F0DDCF40
:100C580012F0820E136E43EC0AF00001B2511EE14D
:100C6800040E0001B15DD8B019D0B1C02AF0B2C0ED
:100C78002BF0D8902A362B36020E2A26000E2B226D
:100C8800A30E2A24D96E000E2B20DA6EDECF11F0C7
:100C9800DDCF12F0C20E136E43EC0AF0800E116E17
:100CA8002A0E74EC0CF038D7000E1D6E050E1C6E63
:100CB800000E1A6E000E196E000E186E000E176EDA
:100CC800850E116E2F0E126E830E136E43EC0AF012
:100CD800010E87EC0BF01B6E000E87EC0BF0166E06
:100CE800070E1618D8A414D01750146E1850156E85
:100CF800174A182A15BE0CD0E80E145C030E1558B6
:100D0800D8A006D0000E0F6E010E0DEC0CF01200EC
:100D18000B0E1B18D8B404D00C0E1B18D8A4D8D7A7
:100D28000B0E1B18D8A414D0100E1C24146E000E21
:100D38001D20156EA50E14181510D8B41CD0100E51
:100D48001C241C6E000E1D201D6E194A1A2A13D071
:100D5800050E1C181D10D8B409D0F00E1C241C6EEA
:100D6800FF0E1D201D6E1906D8A01A06000E0F6E64
:100D7800010E0DEC0CF0000E186E000E176E1C50D4
:100D88009DEC0CF000017C6F1C289DEC0CF0000120
:100D98007D6F1C50020F9DEC0CF000017E6F1C5003
:100DA800030F9DEC0CF000017F6F1C50040F9DECAD
:100DB8000CF00001806F1C50050F9DEC0CF0000139
:100DC800816F1C50060F9DEC0CF00001826F1C50C7
:100DD800070F9DEC0CF00001836F1C50080F9DEC71
:100DE8000CF00001846F1C50090F9DEC0CF0000101
:100DF800856F1C500A0F9DEC0CF00001866F1C508B
:100E08000B0F9DEC0CF00001876F1C500C0F9DEC34
:100E18000CF00001886F1C500D0F9DEC0CF00001C8
:100E2800896F1C500E0F9DEC0CF000018A6F1C504E
:100E38000F0F9DEC0CF000018B6F800E116E230ECE
:100E480074EC0CF0810E116E1950300F74EC0CF02C
:100E5800850E116E2F0E126E830E136E43EC0AF080
:100E68007C0E116E000E126EC00E136E43EC0AF06B
:100E78002FD774D0EE0E116E2F0E126EC90E136E90
:100E880043EC0AF0520E0001866F470E0001856F91
:100E98000DD0EA0E116E2F0E126EC90E136E43ECB2
:100EA8000AF0470E50D04E0E0001866F200E00014A
:100EB800876F75D0310E0001866F470E0001856F70
:100EC800200E0001876FDA0E116E2F0E126EC90EFA
:100ED800136E43EC0AF063D0320E0001866F470EA2
:100EE8000001856F200E0001876FDE0E116E2F0E38
:100EF800126EC90E136E43EC0AF051D0470E000172
:100F0800856F330E0001866F200E0001876FE20E99
:100F1800116E2F0E126EC90E136E43EC0AF03FD0FD
:100F2800470E0001856F340E0001866F200E000108
:100F3800876FE60E116E2F0E126EC90E136E43ECFC
:100F48000AF02DD04F0E0001856FADD74F0E00016E
:100F5800856F460E0001866F460EA9D714C016F09D
:100F680015C017F01750000AD8A419D01650010A56
:100F7800D8B480D7030AD8B48CD7010AD8B49AD782
:100F8800070AD8B4A9D7010AD8B4B8D7030AD8B47D
:100F9800C7D70C0AD8B4D6D7010AD8B4D7D7200EE9
:100FA8000001846F200E0001886F12000600E9CF4F
:100FB80003F0EACF04F0E1CF05F0E2CF06F0D9CF95
:100FC80007F0DACF08F0F3CF09F0F4CF0AF0F6CF44
:100FD8000BF0F7CF0CF0F8CF0DF0F5CF0EF0F2A430
:100FE80021D0080ED624D66E000ED720D76E000169
:100FF800784B792B210E0001781913E14E0E000170
:101008007919D8A40ED04D06D8A04E064EBE05D0EC
:101018004E5007E14D04D8B004D0000E4E6E000EBD
:101028004D6EF2940EC0F5FF0DC0F8FF0CC0F7FF2F
:101038000BC0F6FF0AC0F4FF09C0F3FF08C0DAFFCF
:1010480007C0D9FF06C0E2FF05C0E1FF04C0EAFF00
:1010580003C0E9FF02C0FBFF01C0FAFF5092110074
:10106800A8EC0BF0000E236E000E226E110E106E0F
:101078002F0E116EF4EC0AF0230E106E2F0E116E67
:10108800F4EC0AF029D0000E256E000E246E25BE61
:1010980006D0255013E1100E245CD8B00FD0120EE4
:1010A8002424D96E000E2520DA6E3E509DEC0CF0FB
:1010B800DF6E3E4A3F2A244A252AE9D7120E106ECF
:1010C800000E116EF4EC0AF0200E106E2F0E116E49
:1010D800F4EC0AF0224A232A23BED5D7235004E190
:1010E8000A0E225CD8A0CFD7A50E3E183F10D8A470
:1010F800F3D7000E3F6E050E3E6E1200000E146E02
:1011080012AE06D0116C121ED8B0122A010E146E3F
:1011180010AE06D00F6C101ED8B0102A010E141A8B
:10112800000E166E000E156E11501210D8B41CD099
:10113800010E136E04D0D89011361236132A12AE4F
:10114800FAD7D8901536163611500F5C1250105831
:10115800D8A005D011500F5E1250105A1580D890A3
:1011680012321132132EEDD71450D8B404D0156CA6
:10117800161ED8B0162A15C00FF016C010F01200AF
:10118800020EF8EC0BF04A6E010EF8EC0BF04B6E09
:10119800000EF8EC0BF04C6E4AAC04D04A380F0B3A
:1011A800010B03D04A380F0B030B300F0001986F67
:1011B8004A500F0B300F0001996F3A0E00019A6FD9
:1011C8004B380F0B0F0B300F00019B6F4B500F0B61
:1011D800300F00019C6F3A0E00019D6F4C380F0BC9
:1011E8000F0B300F00019E6F4C500F0B300F00019A
:1011F8009F6F000E0001A06F1200819A818C818E72
:1012080081B202D0010E120081B402D0040E120085
:1012180081B602D0070E120081B802D00A0E120061
:10122800818A819C818E81B202D0020E120081B423
:1012380002D0050E120081B602D0080E120081B845
:1012480002D00B0E1200818A818C819E819E81B210
:1012580002D0030E120081B402D0060E120081B62D
:1012680002D0090E120081B802D00C0E1200FF0E37
:101278001200000E146E10AE06D00F6C101ED8B0FF
:10128800102A010E146E12AE04D0116C121ED8B0C2
:10129800122A11501210D8B418D0010E136E04D0AF
:1012A800D89011361236132A12AEFAD711500F5CA5
:1012B80012501058D8A004D011500F5E1250105A76
:1012C800D89012321132132EF1D71450D8B404D05A
:1012D8000F6C101ED8B0102A0FC00FF010C010F0FD
:1012E8001200000E126E000E116E12BE06D01250C1
:1012F80015E1090E115CD8B011D0980E1124D96EE1
:10130800000E1220DA6E7C0E1124E16E000E1220FF
:10131800E26EDFCFE7FF114A122AE7D7000E106E00
:10132800090E0F6E10BE06D010500FE1110E0F5CA3
:10133800D8B012007C0E0F24D96E000E1020DA6E81
:10134800200EDF6E0F4A102AEDD71200030E1D6E15
:101358001D50010D180EF324D96E000EF420DA6E1C
:1013680016C00FF017C010F0000E126E0A0E116EA4
:1013780066EC0BF00F50300FDF6E16C00FF017C081
:1013880010F0000E126E0A0E116ECBEC0AF00FC0B0
:1013980016F010C017F01D061D28D8A4D9D7000EC6
:1013A8001C6E180E116E000E126ECD0E136E43ECED
:1013B8000AF0120000EE60F0410EEE6AE806FDE168
:1013C8004F6A4E6A4D6A4C6A4B6A4A6A8E0EF66ECE
:1013D800190EF76E000EF86E00EEB3F010EE0AF07C
:1013E8000900F5CFEEFFE550E150FAE15C0EF66E2C
:1013F800190EF76E000EF86E00EE3CF010EE0EF0CF
:101408000900F5CFEEFFE550E150FAE15090509217
:10141800000EF86E0001B3EF01F0030E1D6E1D50B3
:10142800010D180EF324D96E000EF420DA6E16C0E2
:101438000FF017C010F0000E126E0A0E116E66EC57
:101448000BF00F50300FDF6E16C00FF017C010F002
:10145800000E126E0A0E116ECBEC0AF00FC016F0D9
:1014680010C017F01D061D28D8A4D9D7000E1C6E71
:1014780018C089F019C08AF01AC08BF01200000E4B
:101488000F6E13500DEC0CF016D0010E0F6E11C03C
:10149800F6FF12C0F7FFF86A050EF76403D00800DC
:1014A800F55005D0F6CFE9FFF7CFEAFFEF500DEC86
:1014B8000CF0114A122A11C0F6FF12C0F7FFF86AA1
:1014C800050EF76403D00800F55005D0F6CFE9FF04
:1014D800F7CFEAFFEF500009D8B41200D6D7000EB4
:1014E800106E000E0F6E10BE06D0880E0F5C130E25
:1014F8001058D8B01200000E126E000E116E12BEF7
:1015080006D0125007E1640E115CD8B003D0114A1E
:10151800122AF5D7000E146E000E136E14BE06D0F4
:10152800145007E1640E135CD8B003D0134A142A90
:10153800F5D70F4A102AD7D7000EF8EC0BF0126E29
:10154800800E106E000E58EC0CF0010EF8EC0BF04B
:10155800126E350E106E010E58EC0CF0020EF8ECFF
:101568000BF0126E510E106E020E58EC0CF0930E2A
:10157800106E070E58EC0CF0000EF8EC0BF0126E23
:1015880012507F0B106E000E58EC0CF01200000E7B
:10159800146E000E136E11501210D8B41CD0010E28
:1015A800156E04D0D89011361236152A12AEFAD715
:1015B800D8901336143611500F5C12501058D8A01A
:1015C80005D011500F5E1250105A1380D890123265
:1015D8001132152EEDD713C00FF014C010F0120001
:1015E80014D010C0F6FF11C0F7FFF86A050EF764B3
:1015F80003D00800F55005D0F6CFE9FFF7CFEAFF92
:10160800EF50C1EC0CF0104A112A10C0F6FF11C0BF
:10161800F7FFF86A050EF76403D00800F55005D007
:10162800F6CFE9FFF7CFEAFFEF500009D8B4120070
:10163800D8D7000E126E000E116E12BE06D01250D0
:1016480014E1100E115CD8B010D07C0E1124D96EA4
:10165800000E1220DA6EDF500F6E3C5034EC0CF0A6
:101668003C4A3D2A114A122AE8D7A50E3C183D10DB
:10167800D8A41200000E3D6E050E3C6E120004D078
:101688000F4A102A114A122A0FC0D9FF10C0DAFFD8
:10169800DF50136E11C0D9FF12C0DAFFDF50000807
:1016A8001324146E1450D8A407D00FC0D9FF10C04B
:1016B800DAFFDF50D8A4E4D714500F6E106A0FBEBB
:1016C8001006120011501210D8B418D0010E136E63
:1016D80004D0D89011361236132A12AEFAD7115008
:1016E8000F5C12501058D8A004D011500F5E125041
:1016F800105AD89012321132132EF1D70FC00FF0B2
:1017080010C010F01200106E1004D8A415D001EC0F
:1017180009F0116E1128D8B409D04050D8B406D0B9
:1017280011C00FF0000E406E0F5012001128D8A4FF
:1017380009D0010E406E06D01050D8A403D001EC99
:1017480009F01200FF0E1200948E949CAC9EAC9C83
:10175800AC8AAC98AC96AC84AC92AC90AB8EAB9C9B
:10176800AB9AAB88AB96AB94AB92AB90B89EB88C67
:10177800B898B896B892B8900A0EAF6E9D889E98A1
:101788009D8A9E9A1200000E956E9450F80B946EE6
:101798008290000E0F6E020E0DEC0CF0000E0F6E14
:1017A800380E0DEC0CF0000E0F6E0C0E0DEC0CF05C
:1017B800000E0F6E010E0DEC0CF01200000E126EF2
:1017C800050E116E07D0000E0F6E115034EC0CF0A0
:1017D800114A122AA50E11181210D8A4F4D7000E17
:1017E8003D6E050E3C6E1200106ED8EC0CF0D00E5B
:1017F800BBEC0CF01050BBEC0CF0CCEC0CF0D10EA8
:10180800BBEC0CF0B5EC0CF0116ED4EC0CF01150F4
:101818001200106E0FA002D0828201D0829210C0F6
:1018280083FF82848294958E8280829282848294BD
:1018380083BEFCD78290959E1200C282C2B2FED7A8
:10184800C350C4CF11F0126A11C012F0116A1110FE
:10185800136E1250146E13C00FF014C010F0120063
:10186800106E10C0A9FF0FC0A8FFA69EA69CA68454
:10187800F29E550EA76EAA0EA76EA682F28EA1A89A
:10188800FED7A1981200C08EC09AC088C096C0909A
:10189800C082C094C292C288C19AC198000EC46E18
:1018A800000EC36EC2801200116ED8EC0CF0D00E80
:1018B800BBEC0CF01150BBEC0CF01050BBEC0CF076
:1018C800D4EC0CF01200C7EC0BF080EC0CF0A0ECA0
:1018D8000AF047EC0CF08BEC0CF0A6EC0CF01200C4
:1018E800126E000E0F6E11500DEC0CF0010E0F6E03
:1018F80012500DEC0CF0120094869488280EC66ED7
:10190800640EC86EC79CC78E9E96A19612000F0ED5
:10191800C16E1E0E936EF19E8150E009816E120019
:10192800980E116E000E126EC00E136E43EC0AF084
:1019380012000F6E0FC0A9FFA694A69EA69CA680B3
:10194800A8501200D59A000ED76E060ED66EF294E5
:10195800F28A1200050005000130303A30303A3082
:101968003000D0EC0CF0E0EC0CF0C95012000F6E17
:101978000FC0C9FFDCEC0CF012000F6E9EA8FED75A
:101988000FC0ADFF1200BC2F752FB32FAA2FC52F84
:10199800C582DCEC0CF01200C586DCEC0CF0120001
:1019A800C584DCEC0CF01200C580DCEC0CF01200F5
:0E19B8009EA6FED79E961200C58AC588120014
:102EBC00004D617463686564207472792061676188
:102ECC00696E206C617465720020526520456E74C9
:102EDC006572206E65772070617373776F72640012
:102EEC0050617373776F7264204E6F74204D6174F0
:102EFC00636800456E7465722050617373776F72EE
:102F0C0064202020004C4F4720444F574E4C4F41DB
:102F1C004445442E0A0D0054494D452020202020C4
:102F2C004556452020535044002054726965732047
:102F3C006C6566742E2E2E21005761697420313514
:102F4C00206D696E757465730070617373776F7241
:102F5C0064206368616E6765004368616E67652015
:102F6C0070617373206E6F74004368616E676520C7
:102F7C0050617373776F72640054494D452020453E
:102F8C005654202053504400537563636573736625
:102F9C00756C6C790048483A4D4D3A535300446F68
:102FAC00776E6C6F6164005365742054696D6500B5
:102FBC0056696577204C6F6700436C656172004DF4
:102FCC00454E550054494D450057616974004731D1
:102FDC002000473220004733200047342000474E62
:102FEC002000475220004F4E20004F4646004556C9
:032FFC005400007E
:020000040030CA
:08000000FF01191EFF8081FFC2
:00000001FF
